:020000040000fa
:080000000002040000000000f2
:020000040000fa
:100400002f0021000eff2d000e01880000000000cb
:100410000c000700203b2000010020000f00070017
:10042000000020000000e000020032000000020096
:1004300000000000cc020200000000000040da00d2
:100440000000fe00000020000000e000020032007a
:10045000000020009001880000000600a102880032
:10046000800078000000eb001a003700e2804000b6
:1004700054a0b4009101ba00e280400054a0b4003e
:100480009102ba00e280400054a0b4000002eb00e8
:10049000472bde00f507b200a6018800602ce100c2
:1004a00008003a000049eb000201e80002003900b0
:1004b0003420ec0002f0a0008301e900f9ff3e00c7
:1004c000040037006128e100010032000082eb00e7
:1004d000040007001101ba000200e000e3ff3a0047
:1004e0000000060004d0a300e20f49001c00390000
:1004f000810278003549ba000201e80002003900a3
:100500003420ec0002f0a0008301e9000f0032006b
:100510002549ba000201e800020039003420ec004d
:1005200002f0a0008301e900080032000400e000ae
:100530000600320015c9ba000201e80002003900c5
:100540003420ec0002f0a0008301e9008180e80083
:1005500054a0b4000300e000e2ff3a0000000600ef
:100560009102ba00055978008301e900f7ff3200d3
:10057000c82ade00055978008301e900f3ff320044
:100580000400e000f1ff320011d9ba00eeff37009d
:080590000040da000000fe004b
:020000040000fa
:0200000401f009
:04000c00f8ff0000f9
:020000040000fa
:0200000401f009
:040010005dff000090
:020000040000fa
:0200000401f009
:040014007fff00006a
:020000040000fa
:0200000401f009
:04001800cfff000016
:020000040000fa
:0200000401f009
:04001c00dfff000002
:020000040000fa
:10000800c8020000c8020000c8020000c8020000c0
:10001800c8020000c8020000c8020000c8020000b0
:10002800c8020000c8020000c8020000e202000086
:10003800c8020000c8020000c8020000c802000090
:10004800c8020000c8020000c8020000c802000080
:10005800c8020000c8020000c8020000c802000070
:10006800c8020000c8020000c8020000c802000060
:020000040000fa
:100598000000fa00320007008000eb0000e32000b2
:1005a800010878008000eb0040e320000108780093
:1005b800340ea800342ea800ffff3700809fbe002d
:1005c800821f78000200fa0000808000614060000d
:1005d8006141600040e3200090407800e0cfb30024
:1005e80000c060000240700041e3200080487800ad
:1005f800008080008000eb00010f78000000e00020
:1006080002003a0010002000000f78009e007800d9
:1006180001808800008080006140600061406000c7
:100628000041400040e3200090407800d0cfb30064
:1006380000c060000240700041e32000804878005c
:100648008000eb0000102000010878000068a90075
:100658000080fa004f0178004f00be0000400600fd
:100668000000fa00a103200060742000010878004f
:100678004074200010407800f2c3b300824060004c
:1006880040742000014878004074200090407800b1
:1006980000ceb30080c0600040742000014878009c
:1006a8008000eb00807420000108780040a7a900b2
:1006b8003200200081072000a009200033742000a8
:1006c800814978008049780082497800120020002a
:1006d80061042000700520002374200081497800ff
:1006e80080497800824978003074200010407800f2
:1006f80002c7b3008240600000c3b30080cf50003f
:10070800f9ff3a0020742000104078000042b2003f
:100718000004e000fbff320005e1a90004c1a900c4
:10072800401020009040780000c3b30080c07000e3
:1007380040102000014878000421a9000100280089
:10074800201020000108780005e1a800c3e8a800ef
:0c0758002068a8000080fa0000000600e5
:020000040000fa
:1007640000100000020000008200000001000000f0
:040774000000000081
:00000001FF
